:020000040000FA
:020000000528D1
:06000A00850183169F0131
:100010008601831281309F009F111F123D203D20D9
:100020001F151F1911281E08A5009F153D203D20F2
:100030001F151F1919281E08A6009F111F163D2005
:100040003D201F151F1922281E08A700260825027B
:10005000031C302827082502031C362801303728C6
:1000600027082602031C362803303728073086006D
:100070003D203D203D203D200C281730A400640089
:0A008000A40B3F2843286400080089
:00000001FF
